{
  "contractName": "KryptoBird",
  "abi": [
    {
      "inputs": [],
      "stateMutability": "nonpayable",
      "type": "constructor"
    },
    {
      "anonymous": false,
      "inputs": [
        {
          "indexed": false,
          "internalType": "address",
          "name": "_owner",
          "type": "address"
        },
        {
          "indexed": true,
          "internalType": "address",
          "name": "_approved",
          "type": "address"
        },
        {
          "indexed": true,
          "internalType": "uint256",
          "name": "_tokenId",
          "type": "uint256"
        }
      ],
      "name": "Approval",
      "type": "event"
    },
    {
      "anonymous": false,
      "inputs": [
        {
          "indexed": true,
          "internalType": "address",
          "name": "_from",
          "type": "address"
        },
        {
          "indexed": true,
          "internalType": "address",
          "name": "_to",
          "type": "address"
        },
        {
          "indexed": true,
          "internalType": "uint256",
          "name": "_tokenId",
          "type": "uint256"
        }
      ],
      "name": "Transfer",
      "type": "event"
    },
    {
      "inputs": [
        {
          "internalType": "address",
          "name": "to",
          "type": "address"
        },
        {
          "internalType": "uint256",
          "name": "tokenId",
          "type": "uint256"
        }
      ],
      "name": "_addTokensToOwnerEnumeration",
      "outputs": [],
      "stateMutability": "nonpayable",
      "type": "function"
    },
    {
      "inputs": [
        {
          "internalType": "address",
          "name": "_to",
          "type": "address"
        },
        {
          "internalType": "uint256",
          "name": "tokenId",
          "type": "uint256"
        }
      ],
      "name": "approve",
      "outputs": [],
      "stateMutability": "nonpayable",
      "type": "function"
    },
    {
      "inputs": [
        {
          "internalType": "address",
          "name": "_owner",
          "type": "address"
        }
      ],
      "name": "balanceOf",
      "outputs": [
        {
          "internalType": "uint256",
          "name": "",
          "type": "uint256"
        }
      ],
      "stateMutability": "view",
      "type": "function",
      "constant": true
    },
    {
      "inputs": [
        {
          "internalType": "uint256",
          "name": "",
          "type": "uint256"
        }
      ],
      "name": "kryptoBirdz",
      "outputs": [
        {
          "internalType": "string",
          "name": "",
          "type": "string"
        }
      ],
      "stateMutability": "view",
      "type": "function",
      "constant": true
    },
    {
      "inputs": [],
      "name": "name",
      "outputs": [
        {
          "internalType": "string",
          "name": "",
          "type": "string"
        }
      ],
      "stateMutability": "view",
      "type": "function",
      "constant": true
    },
    {
      "inputs": [
        {
          "internalType": "uint256",
          "name": "_tokenId",
          "type": "uint256"
        }
      ],
      "name": "ownerOf",
      "outputs": [
        {
          "internalType": "address",
          "name": "",
          "type": "address"
        }
      ],
      "stateMutability": "view",
      "type": "function",
      "constant": true
    },
    {
      "inputs": [
        {
          "internalType": "bytes4",
          "name": "interfaceID",
          "type": "bytes4"
        }
      ],
      "name": "supportsInterface",
      "outputs": [
        {
          "internalType": "bool",
          "name": "",
          "type": "bool"
        }
      ],
      "stateMutability": "view",
      "type": "function",
      "constant": true
    },
    {
      "inputs": [],
      "name": "symbol",
      "outputs": [
        {
          "internalType": "string",
          "name": "",
          "type": "string"
        }
      ],
      "stateMutability": "view",
      "type": "function",
      "constant": true
    },
    {
      "inputs": [
        {
          "internalType": "uint256",
          "name": "index",
          "type": "uint256"
        }
      ],
      "name": "tokenByIndex",
      "outputs": [
        {
          "internalType": "uint256",
          "name": "",
          "type": "uint256"
        }
      ],
      "stateMutability": "view",
      "type": "function",
      "constant": true
    },
    {
      "inputs": [
        {
          "internalType": "address",
          "name": "owner",
          "type": "address"
        },
        {
          "internalType": "uint256",
          "name": "index",
          "type": "uint256"
        }
      ],
      "name": "tokenOfOwnerByIndex",
      "outputs": [
        {
          "internalType": "uint256",
          "name": "",
          "type": "uint256"
        }
      ],
      "stateMutability": "view",
      "type": "function",
      "constant": true
    },
    {
      "inputs": [],
      "name": "totalSupply",
      "outputs": [
        {
          "internalType": "uint256",
          "name": "",
          "type": "uint256"
        }
      ],
      "stateMutability": "view",
      "type": "function",
      "constant": true
    },
    {
      "inputs": [
        {
          "internalType": "address",
          "name": "_from",
          "type": "address"
        },
        {
          "internalType": "address",
          "name": "_to",
          "type": "address"
        },
        {
          "internalType": "uint256",
          "name": "_tokenId",
          "type": "uint256"
        }
      ],
      "name": "transferFrom",
      "outputs": [],
      "stateMutability": "nonpayable",
      "type": "function"
    },
    {
      "inputs": [
        {
          "internalType": "string",
          "name": "_kryptoBird",
          "type": "string"
        }
      ],
      "name": "mint",
      "outputs": [],
      "stateMutability": "nonpayable",
      "type": "function"
    }
  ],
  "bytecode": "0x60806040523480156200001157600080fd5b506040518060400160405280600a81526020017f4b727970746f42697264000000000000000000000000000000000000000000008152506040518060400160405280600681526020017f4b424952445a00000000000000000000000000000000000000000000000000008152508181620000b17f01ffc9a7a5cef8baa21ed3c5c0d7e23accb804b619e9333b597f47a0d84076e26200022a60201b60201c565b620001047f13b182f4c0e5b2efbac0efe6cf6d756c8b89f4b79c5707a043ed9ea740574ee97f7feaf19471f34a12a7eaf32d5f3090aa2260ea8624dc8a138e74e0bf0f623076186200022a60201b60201c565b81600190805190602001906200011c92919062000302565b5080600290805190602001906200013592919062000302565b505050620001ad7f22c82707ba960a14c7592ffb6b8cfaa073fed0048a84cc7fa41f6b5bd8e7f2e47f3a6eb71757dfc6e784c1459d26270140c2c147d95ca985c80026fc5301c3eca17f8a7e378434598edc36d108689a030cbc9d7d465de4f74c71bae1028eed6a881b18186200022a60201b60201c565b620002227f8230223f691b981717299fae9549350a0d894555723531f02108b1f522c1a7977f6da5e1284143cdd2d15038a59bde3be031250f00291d64494c12d967b3a4e0c37fc53637662700e6c65104059db8bba34439e0c32483ab7c34e3ccae52c739549518186200022a60201b60201c565b50506200049a565b63ffffffff60e01b817bffffffffffffffffffffffffffffffffffffffffffffffffffffffff1916141562000296576040517f08c379a00000000000000000000000000000000000000000000000000000000081526004016200028d9062000413565b60405180910390fd5b6001600080837bffffffffffffffffffffffffffffffffffffffffffffffffffffffff19167bffffffffffffffffffffffffffffffffffffffffffffffffffffffff1916815260200190815260200160002060006101000a81548160ff02191690831515021790555050565b828054620003109062000464565b90600052602060002090601f01602090048101928262000334576000855562000380565b82601f106200034f57805160ff191683800117855562000380565b8280016001018555821562000380579182015b828111156200037f57825182559160200191906001019062000362565b5b5090506200038f919062000393565b5090565b5b80821115620003ae57600081600090555060010162000394565b5090565b600082825260208201905092915050565b7f496e76616c696420696e74657266616365207265717565737400000000000000600082015250565b6000620003fb601983620003b2565b91506200040882620003c3565b602082019050919050565b600060208201905081810360008301526200042e81620003ec565b9050919050565b7f4e487b7100000000000000000000000000000000000000000000000000000000600052602260045260246000fd5b600060028204905060018216806200047d57607f821691505b6020821081141562000494576200049362000435565b5b50919050565b611dda80620004aa6000396000f3fe608060405234801561001057600080fd5b50600436106100cf5760003560e01c80634f6ccce71161008c57806393ab6e561161006657806393ab6e561461023857806395d89b4114610268578063a69c700114610286578063d85d3d27146102a2576100cf565b80634f6ccce7146101a85780636352211e146101d857806370a0823114610208576100cf565b806301ffc9a7146100d457806306fdde0314610104578063095ea7b31461012257806318160ddd1461013e57806323b872dd1461015c5780632f745c5914610178575b600080fd5b6100ee60048036038101906100e9919061120f565b6102be565b6040516100fb9190611257565b60405180910390f35b61010c610325565b604051610119919061130b565b60405180910390f35b61013c600480360381019061013791906113c1565b6103b7565b005b610146610547565b6040516101539190611410565b60405180910390f35b6101766004803603810190610171919061142b565b610554565b005b610192600480360381019061018d91906113c1565b610577565b60405161019f9190611410565b60405180910390f35b6101c260048036038101906101bd919061147e565b610627565b6040516101cf9190611410565b60405180910390f35b6101f260048036038101906101ed919061147e565b610698565b6040516101ff91906114ba565b60405180910390f35b610222600480360381019061021d91906114d5565b61074a565b60405161022f9190611410565b60405180910390f35b610252600480360381019061024d919061147e565b610809565b60405161025f919061130b565b60405180910390f35b6102706108b5565b60405161027d919061130b565b60405180910390f35b6102a0600480360381019061029b91906113c1565b610947565b005b6102bc60048036038101906102b79190611637565b610a0b565b005b6000806000837bffffffffffffffffffffffffffffffffffffffffffffffffffffffff19167bffffffffffffffffffffffffffffffffffffffffffffffffffffffff1916815260200190815260200160002060009054906101000a900460ff169050919050565b606060018054610334906116af565b80601f0160208091040260200160405190810160405280929190818152602001828054610360906116af565b80156103ad5780601f10610382576101008083540402835291602001916103ad565b820191906000526020600020905b81548152906001019060200180831161039057829003601f168201915b5050505050905090565b60006103c282610698565b90508073ffffffffffffffffffffffffffffffffffffffff168373ffffffffffffffffffffffffffffffffffffffff161415610433576040517f08c379a000000000000000000000000000000000000000000000000000000000815260040161042a90611753565b60405180910390fd5b8073ffffffffffffffffffffffffffffffffffffffff163373ffffffffffffffffffffffffffffffffffffffff16146104a1576040517f08c379a0000000000000000000000000000000000000000000000000000000008152600401610498906117e5565b60405180910390fd5b826005600084815260200190815260200160002060006101000a81548173ffffffffffffffffffffffffffffffffffffffff021916908373ffffffffffffffffffffffffffffffffffffffff160217905550818373ffffffffffffffffffffffffffffffffffffffff167f8c5be1e5ebec7d5bd14f71427d1e84f3dd0314c0f7b2291e5b200ac8c7c3b9258360405161053a91906114ba565b60405180910390a3505050565b6000600680549050905090565b61055e3382610b0e565b61056757600080fd5b610572838383610b9d565b505050565b60006105828361074a565b82106105c3576040517f08c379a00000000000000000000000000000000000000000000000000000000081526004016105ba90611851565b60405180910390fd5b600860008473ffffffffffffffffffffffffffffffffffffffff1673ffffffffffffffffffffffffffffffffffffffff168152602001908152602001600020828154811061061457610613611871565b5b9060005260206000200154905092915050565b6000610631610547565b8210610672576040517f08c379a000000000000000000000000000000000000000000000000000000000815260040161066990611851565b60405180910390fd5b6006828154811061068657610685611871565b5b90600052602060002001549050919050565b6000806003600084815260200190815260200160002060009054906101000a900473ffffffffffffffffffffffffffffffffffffffff169050600073ffffffffffffffffffffffffffffffffffffffff168173ffffffffffffffffffffffffffffffffffffffff161415610741576040517f08c379a000000000000000000000000000000000000000000000000000000000815260040161073890611912565b60405180910390fd5b80915050919050565b60008073ffffffffffffffffffffffffffffffffffffffff168273ffffffffffffffffffffffffffffffffffffffff1614156107bb576040517f08c379a00000000000000000000000000000000000000000000000000000000081526004016107b290611912565b60405180910390fd5b610802600460008473ffffffffffffffffffffffffffffffffffffffff1673ffffffffffffffffffffffffffffffffffffffff168152602001908152602001600020610dc3565b9050919050565b600a818154811061081957600080fd5b906000526020600020016000915090508054610834906116af565b80601f0160208091040260200160405190810160405280929190818152602001828054610860906116af565b80156108ad5780601f10610882576101008083540402835291602001916108ad565b820191906000526020600020905b81548152906001019060200180831161089057829003601f168201915b505050505081565b6060600280546108c4906116af565b80601f01602080910402602001604051908101604052809291908181526020018280546108f0906116af565b801561093d5780601f106109125761010080835404028352916020019161093d565b820191906000526020600020905b81548152906001019060200180831161092057829003601f168201915b5050505050905090565b600860008373ffffffffffffffffffffffffffffffffffffffff1673ffffffffffffffffffffffffffffffffffffffff168152602001908152602001600020805490506009600083815260200190815260200160002081905550600860008373ffffffffffffffffffffffffffffffffffffffff1673ffffffffffffffffffffffffffffffffffffffff1681526020019081526020016000208190806001815401808255809150506001900390600052602060002001600090919091909150555050565b600b81604051610a1b919061196e565b908152602001604051809103902060009054906101000a900460ff1615610a77576040517f08c379a0000000000000000000000000000000000000000000000000000000008152600401610a6e906119d1565b60405180910390fd5b600a81908060018154018082558091505060019003906000526020600020016000909190919091509080519060200190610ab2929190611100565b5060006001600a80549050610ac79190611a20565b9050610ad33382610dd1565b6001600b83604051610ae5919061196e565b908152602001604051809103902060006101000a81548160ff0219169083151502179055505050565b6000610b1982610df2565b610b58576040517f08c379a0000000000000000000000000000000000000000000000000000000008152600401610b4f90611aa0565b60405180910390fd5b6000610b6383610698565b90508073ffffffffffffffffffffffffffffffffffffffff168473ffffffffffffffffffffffffffffffffffffffff161491505092915050565b600073ffffffffffffffffffffffffffffffffffffffff168273ffffffffffffffffffffffffffffffffffffffff161415610c0d576040517f08c379a0000000000000000000000000000000000000000000000000000000008152600401610c0490611b32565b60405180910390fd5b8273ffffffffffffffffffffffffffffffffffffffff16610c2d82610698565b73ffffffffffffffffffffffffffffffffffffffff1614610c83576040517f08c379a0000000000000000000000000000000000000000000000000000000008152600401610c7a90611b9e565b60405180910390fd5b610cca600460008573ffffffffffffffffffffffffffffffffffffffff1673ffffffffffffffffffffffffffffffffffffffff168152602001908152602001600020610e64565b610d11600460008473ffffffffffffffffffffffffffffffffffffffff1673ffffffffffffffffffffffffffffffffffffffff168152602001908152602001600020610e87565b816003600083815260200190815260200160002060006101000a81548173ffffffffffffffffffffffffffffffffffffffff021916908373ffffffffffffffffffffffffffffffffffffffff160217905550808273ffffffffffffffffffffffffffffffffffffffff168473ffffffffffffffffffffffffffffffffffffffff167fddf252ad1be2c89b69c2b068fc378daa952ba7f163c4a11628f55a4df523b3ef60405160405180910390a4505050565b600081600001549050919050565b610ddb8282610ea6565b610de481611058565b610dee8282610947565b5050565b6000806003600084815260200190815260200160002060009054906101000a900473ffffffffffffffffffffffffffffffffffffffff169050600073ffffffffffffffffffffffffffffffffffffffff168173ffffffffffffffffffffffffffffffffffffffff161415915050919050565b610e7c600182600001546110a190919063ffffffff16565b816000018190555050565b6001816000016000828254610e9c9190611bbe565b9250508190555050565b600073ffffffffffffffffffffffffffffffffffffffff168273ffffffffffffffffffffffffffffffffffffffff161415610f16576040517f08c379a0000000000000000000000000000000000000000000000000000000008152600401610f0d90611c86565b60405180910390fd5b610f1f81610df2565b15610f5f576040517f08c379a0000000000000000000000000000000000000000000000000000000008152600401610f5690611cf2565b60405180910390fd5b816003600083815260200190815260200160002060006101000a81548173ffffffffffffffffffffffffffffffffffffffff021916908373ffffffffffffffffffffffffffffffffffffffff160217905550610ff8600460008473ffffffffffffffffffffffffffffffffffffffff1673ffffffffffffffffffffffffffffffffffffffff168152602001908152602001600020610e87565b808273ffffffffffffffffffffffffffffffffffffffff16600073ffffffffffffffffffffffffffffffffffffffff167fddf252ad1be2c89b69c2b068fc378daa952ba7f163c4a11628f55a4df523b3ef60405160405180910390a45050565b6006805490506007600083815260200190815260200160002081905550600681908060018154018082558091505060019003906000526020600020016000909190919091505550565b6000828211156110e6576040517f08c379a00000000000000000000000000000000000000000000000000000000081526004016110dd90611d84565b60405180910390fd5b600082846110f49190611a20565b90508091505092915050565b82805461110c906116af565b90600052602060002090601f01602090048101928261112e5760008555611175565b82601f1061114757805160ff1916838001178555611175565b82800160010185558215611175579182015b82811115611174578251825591602001919060010190611159565b5b5090506111829190611186565b5090565b5b8082111561119f576000816000905550600101611187565b5090565b6000604051905090565b600080fd5b600080fd5b60007fffffffff0000000000000000000000000000000000000000000000000000000082169050919050565b6111ec816111b7565b81146111f757600080fd5b50565b600081359050611209816111e3565b92915050565b600060208284031215611225576112246111ad565b5b6000611233848285016111fa565b91505092915050565b60008115159050919050565b6112518161123c565b82525050565b600060208201905061126c6000830184611248565b92915050565b600081519050919050565b600082825260208201905092915050565b60005b838110156112ac578082015181840152602081019050611291565b838111156112bb576000848401525b50505050565b6000601f19601f8301169050919050565b60006112dd82611272565b6112e7818561127d565b93506112f781856020860161128e565b611300816112c1565b840191505092915050565b6000602082019050818103600083015261132581846112d2565b905092915050565b600073ffffffffffffffffffffffffffffffffffffffff82169050919050565b60006113588261132d565b9050919050565b6113688161134d565b811461137357600080fd5b50565b6000813590506113858161135f565b92915050565b6000819050919050565b61139e8161138b565b81146113a957600080fd5b50565b6000813590506113bb81611395565b92915050565b600080604083850312156113d8576113d76111ad565b5b60006113e685828601611376565b92505060206113f7858286016113ac565b9150509250929050565b61140a8161138b565b82525050565b60006020820190506114256000830184611401565b92915050565b600080600060608486031215611444576114436111ad565b5b600061145286828701611376565b935050602061146386828701611376565b9250506040611474868287016113ac565b9150509250925092565b600060208284031215611494576114936111ad565b5b60006114a2848285016113ac565b91505092915050565b6114b48161134d565b82525050565b60006020820190506114cf60008301846114ab565b92915050565b6000602082840312156114eb576114ea6111ad565b5b60006114f984828501611376565b91505092915050565b600080fd5b600080fd5b7f4e487b7100000000000000000000000000000000000000000000000000000000600052604160045260246000fd5b611544826112c1565b810181811067ffffffffffffffff821117156115635761156261150c565b5b80604052505050565b60006115766111a3565b9050611582828261153b565b919050565b600067ffffffffffffffff8211156115a2576115a161150c565b5b6115ab826112c1565b9050602081019050919050565b82818337600083830152505050565b60006115da6115d584611587565b61156c565b9050828152602081018484840111156115f6576115f5611507565b5b6116018482856115b8565b509392505050565b600082601f83011261161e5761161d611502565b5b813561162e8482602086016115c7565b91505092915050565b60006020828403121561164d5761164c6111ad565b5b600082013567ffffffffffffffff81111561166b5761166a6111b2565b5b61167784828501611609565b91505092915050565b7f4e487b7100000000000000000000000000000000000000000000000000000000600052602260045260246000fd5b600060028204905060018216806116c757607f821691505b602082108114156116db576116da611680565b5b50919050565b7f4572726f72202d20617070726f76616c20746f2063757272656e74206f776e6560008201527f7200000000000000000000000000000000000000000000000000000000000000602082015250565b600061173d60218361127d565b9150611748826116e1565b604082019050919050565b6000602082019050818103600083015261176c81611730565b9050919050565b7f43757272656e742063616c6c6572206973206e6f7420746865206f776e65722060008201527f6f662074686520746f6b656e0000000000000000000000000000000000000000602082015250565b60006117cf602c8361127d565b91506117da82611773565b604082019050919050565b600060208201905081810360008301526117fe816117c2565b9050919050565b7f496e646578206973206f7574206f6620626f756e647300000000000000000000600082015250565b600061183b60168361127d565b915061184682611805565b602082019050919050565b6000602082019050818103600083015261186a8161182e565b9050919050565b7f4e487b7100000000000000000000000000000000000000000000000000000000600052603260045260246000fd5b7f4e4654732061737369676e656420746f20746865207a65726f2061646472657360008201527f732061726520636f6e7369646572656420696e76616c69642100000000000000602082015250565b60006118fc60398361127d565b9150611907826118a0565b604082019050919050565b6000602082019050818103600083015261192b816118ef565b9050919050565b600081905092915050565b600061194882611272565b6119528185611932565b935061196281856020860161128e565b80840191505092915050565b600061197a828461193d565b915081905092915050565b7f4572726f723a204b727970746f4269726420616c726561647920657869737473600082015250565b60006119bb60208361127d565b91506119c682611985565b602082019050919050565b600060208201905081810360008301526119ea816119ae565b9050919050565b7f4e487b7100000000000000000000000000000000000000000000000000000000600052601160045260246000fd5b6000611a2b8261138b565b9150611a368361138b565b925082821015611a4957611a486119f1565b5b828203905092915050565b7f746f6b656e20646f6573206e6f74206578697374000000000000000000000000600082015250565b6000611a8a60148361127d565b9150611a9582611a54565b602082019050919050565b60006020820190508181036000830152611ab981611a7d565b9050919050565b7f4572726f72202d20455243373231205472616e7366657220746f20746865207a60008201527f65726f2061646472657373000000000000000000000000000000000000000000602082015250565b6000611b1c602b8361127d565b9150611b2782611ac0565b604082019050919050565b60006020820190508181036000830152611b4b81611b0f565b9050919050565b7f5472616e73666572206661696c65640000000000000000000000000000000000600082015250565b6000611b88600f8361127d565b9150611b9382611b52565b602082019050919050565b60006020820190508181036000830152611bb781611b7b565b9050919050565b6000611bc98261138b565b9150611bd48361138b565b9250827fffffffffffffffffffffffffffffffffffffffffffffffffffffffffffffffff03821115611c0957611c086119f1565b5b828201905092915050565b7f4552433732313a206d696e74696e6720746f20746865207a65726f206164647260008201527f6573730000000000000000000000000000000000000000000000000000000000602082015250565b6000611c7060238361127d565b9150611c7b82611c14565b604082019050919050565b60006020820190508181036000830152611c9f81611c63565b9050919050565b7f4552433732313a20746f6b656e20616c7265616479206d696e74656400000000600082015250565b6000611cdc601c8361127d565b9150611ce782611ca6565b602082019050919050565b60006020820190508181036000830152611d0b81611ccf565b9050919050565b7f4572726f723a20536166656d617468207375627472616374696f6e206f76657260008201527f666c6f7700000000000000000000000000000000000000000000000000000000602082015250565b6000611d6e60248361127d565b9150611d7982611d12565b604082019050919050565b60006020820190508181036000830152611d9d81611d61565b905091905056fea2646970667358221220eaff8d6074dc0261acd702f55a497d6f464ba1d7de3cfb7caa4782b7e143a56864736f6c634300080b0033",
  "immutableReferences": {},
  "source": "// SPDX-License-Identifier: MIT\r\npragma solidity ^0.8.0;\r\n\r\nimport './ERC721Connector.sol';\r\n\r\ncontract KryptoBird is ERC721Connector {\r\n\r\n    // array to store our nfts\r\n    string[] public kryptoBirdz;\r\n    mapping(string => bool) _kryptoBirdzExists;\r\n\r\n    function mint(string memory _kryptoBird) public {\r\n\r\n        require(!_kryptoBirdzExists[_kryptoBird], \"Error: KryptoBird already exists\");\r\n\r\n        kryptoBirdz.push(_kryptoBird);\r\n        uint _id = kryptoBirdz.length - 1;\r\n        _mint(msg.sender, _id);\r\n\r\n        _kryptoBirdzExists[_kryptoBird] = true;\r\n\r\n    }\r\n\r\n    constructor() ERC721Connector('KryptoBird', 'KBIRDZ') {\r\n        \r\n    }\r\n}",
  "sourcePath": "C:\\Users\\Nnam Darlington\\Desktop\\programming\\programming tutorials\\Blockchain Dev\\Projects\\nft-marketplace\\src\\contracts\\kryptoBirdz.sol",
  "compiler": {
    "name": "solc",
    "version": "0.8.11+commit.d7f03943.Emscripten.clang"
  },
  "schemaVersion": "3.4.5",
  "updatedAt": "2022-04-27T17:15:10.723Z",
  "networkType": "ethereum",
  "devdoc": {
    "kind": "dev",
    "methods": {},
    "version": 1
  },
  "userdoc": {
    "kind": "user",
    "methods": {},
    "version": 1
  }
}